:100000000C948C070C94B4070C94B4070C94B407AC
:100010000C94B4070C94B4070C94B4070C94B40774
:100020000C94B4070C94B4070C94C80D0C94370EC0
:100030000C94B4070C94B4070C94B4070C94B40754
:100040000C94B4070C94B4070C94B4070C94B40744
:100050000C94B4070C94B4070C94B4070C94691076
:100060000C94B4070C94B4070C94B4070C94B40724
:100070000C94B4070C94B4070C94B4070C94B40714
:100080000C94B3100C94B4070C94B4070C94B407FC
:100090000C94B4070C94B4070C94B4070C94B407F4
:1000A0000C94B4070C94B4070C94B4070E11110E01
:1000B0000010111F10001D151517001115151F0038
:1000C0000F081C08001715151D001F15151D001120
:1000D000090503001F15151F001715151F001E0524
:1000E000051E001F11150A000E111111001F11111C
:1000F0000E001F151511001F050501001F11151D0C
:10010000001F04041F00111F11000011111F010026
:100110001F040A11001F101010001E0106011E1FEF
:100120000204081F0E1111110E1F050502000E1109
:100130001509161F05051B00121515090001011FE1
:1001400001010F10100F000F100807000F100E1004
:100150000F110A040A111714141F001915151300A2
:1001600004021F020404081F080417001700170BDD
:1001700002500093025000100350001704A000101A
:1001800003500017044001008000000000003E5BA7
:100190004F5B3E3E6B4F6B3E1C3E7C3E1C183C7ED4
:1001A0003C181C577D571C1C5E7F5E1C00183C18B9
:1001B00000FFE7C3E7FF0018241800FFE7DBE7FFB5
:1001C00030483A060E2629792926407F0505074042
:1001D0007F05253F5A3CE73C5A7F3E1C1C08081C03
:1001E0001C3E7F14227F22145F5F005F5F06097F41
:1001F000017F006689956A606060606094A2FFA2DA
:100200009408047E040810207E201008082A1C0888
:10021000081C2A08081E101010100C1E0C1E0C3092
:10022000383E3830060E3E0E06000000000000008A
:100230005F00000007000700147F147F14242A7F4A
:100240002A12231308646236495620500008070317
:1002500000001C2241000041221C002A1C7F1C2A95
:1002600008083E08080080703000080808080800E8
:100270000060600020100804023E5149453E0042E3
:100280007F400072494949462141494D33181412B3
:100290007F1027454545393C4A49493141211109DB
:1002A000073649494936464949291E0000140000CD
:1002B00000403400000008142241141414141400E7
:1002C0004122140802015909063E415D594E7C1233
:1002D00011127C7F494949363E414141227F4141CB
:1002E000413E7F494949417F090909013E41415148
:1002F000737F0808087F00417F41002040413F0193
:100300007F081422417F404040407F021C027F7FD3
:100310000408107F3E4141413E7F090909063E41E4
:1003200051215E7F09192946264949493203017F37
:1003300001033F4040403F1F2040201F3F403840C6
:100340003F631408146303047804036159494D435F
:10035000007F4141410204081020004141417F04D7
:1003600002010204404040404000030708002054BE
:100370005478407F2844443838444444283844441E
:10038000287F385454541800087E090218A4A49CED
:10039000787F0804047800447D40002040403D0000
:1003A0007F1028440000417F40007C047804787C62
:1003B000080404783844444438FC182424181824C9
:1003C0002418FC7C08040408485454542404043FB2
:1003D00044243C4040207C1C2040201C3C403040B9
:1003E0003C44281028444C9090907C4464544C44E5
:1003F0000008364100000077000000413608000286
:10040000010204023C2623263C1EA1A161123A40AF
:1004100040207A3854545559215555794121545426
:100420007841215554784020545579400C1E527221
:1004300012395555555939545454593955545458FD
:100440000000457C410002457D420001457C40F0B2
:10045000292429F0F0282528F07C54554500205403
:10046000547C547C0A097F49324949493232484810
:100470004832324A4848303A4141217A3A42402093
:1004800078009DA0A07D39444444393D4040403D22
:100490003C24FF2424487E4943662B2FFC2F2BFF4E
:1004A0000929F620C0887E090320545479410000B0
:1004B000447D413048484A32384040227A007A0A26
:1004C0000A727D0D19317D2629292F2826292929EF
:1004D0002630484D40203808080808080808083821
:1004E0002F10C8ACBA2F102834FA00007B00000887
:1004F000142A142222142A14089500220095AA0016
:100500005500AAAA55AA55AA000000FF0010101015
:10051000FF00141414FF001010FF00FF1010F01063
:10052000F0141414FC001414F700FF0000FF00FF87
:100530001414F404FC141417101F10101F101F14AF
:1005400014141F00101010F0000000001F101010F5
:10055000101F10101010F010000000FF10101010ED
:100560001010101010FF10000000FF140000FF001A
:10057000FF00001F10170000FC04F41414171017DC
:100580001414F404F40000FF00F7141414141414E9
:1005900014F700F7141414171410101F101F14145C
:1005A00014F4141010F010F000001F101F000000D1
:1005B0001F14000000FC140000F010F01010FF10D9
:1005C000FF141414FF141010101F00000000F0108E
:1005D000FFFFFFFFFFF0F0F0F0F0FFFFFF00000073
:1005E0000000FFFF0F0F0F0F0F38444438447C2AE0
:1005F0002A3E147E02020606027E027E02635549EE
:1006000041633844443C04407E201E2006027E02A2
:100610000299A5E7A5991C2A492A1C4C7201724C23
:10062000304A4D4D303048784830BC625A463D3EE5
:10063000494949007E0101017E2A2A2A2A2A444486
:100640005F444440514A444040444A51400000FF06
:100650000103E080FF000008086B6B0836123624A7
:1006600036060F090F0600001818000000101000D1
:100670003040FF0101001F01011E00191D1712006B
:100680003C3C3C3C0000000000F0F89C8E878387D7
:100690008E9CF8F00000FEFF0303030303070EFC2B
:1006A000F80000FEFF0303030303070EFCF800003D
:1006B000FFFF00000000000000FFFF0000FEFF83BE
:1006C00083838383C7EE7C380000F8FC0E070303A6
:1006D00003070EFCF800003F7FE0C08080C0E07F91
:1006E0003FFFFF01010101010101FFFF0000FFFFCA
:1006F0000C0C0C0C1C3E77E3C100007FFFC0C0C097
:10070000C0C0E0703F1F00001F3F70E0C0C0C0E0ED
:10071000703F1F00007FFFC1C1C1C1C1E3773E1C14
:1007200000001F3F70E0C0C0C0E0703F1F0000002D
:10073000000001FFFF01000000D5F08D14A1C88169
:10074000CFD9F1AF2000F0F8FCFE0FB7B70FFEFCD9
:10075000F8F0000103070E0F0F0E07030100FF0161
:10076000010101616101010101FF0F08080808088A
:1007700008080808080FFF010101010101010D0D22
:1007800001FF0F080B0B080808080808080FFF01F5
:100790000101016161010D0D01FF0F080B0B08083C
:1007A00008080808080FFF010D0D010101010D0DDA
:1007B00001FF0F080B0B080808080B0B080FFF01BF
:1007C0000D0D016161010D0D01FF0F080B0B0808F4
:1007D00008080B0B080FFF016D6D010101016D6D24
:1007E00001FF0F080B0B080808080B0B080FF0F0AF
:1007F0000C0C0303030303030C0CF0F003030C0CB9
:100800003030303030300C0C0303F0F0FCFCFFFFD4
:10081000FFFFFFFFFCFCF0F003030F0F3F3F3F3FE4
:100820003F3F0F0F0303FCFC030303030C0C030304
:100830000303FCFC000003030C0C30300C0C03031E
:100840000000FCFCFFFFFFFFFCFCFFFFFFFFFCFCC8
:10085000000003030F0F3F3F0F0F030300001C2294
:10086000414141221C0E11214221110EFFFFFFFFC9
:10087000FFFFFFFFFF0101FFFFFFFFFFFFFFFFFF84
:10088000FFFFFFFFFFFFFFFFFF0000FFFFFFFFFF76
:10089000FFFFFFFF0F0F0F0F0F0F0F0F0F08080FB6
:1008A0000F0F0F0F0F0F0F0FFFFFFFFFFFFFFF01D6
:1008B0000101010101FFFFFFFFFFFFFFFFFFFFFF3E
:1008C000FFFFFF000000000000FFFFFFFFFFFFFF32
:1008D0000F0F0F0F0F0F0F0808080808080F0F0F52
:1008E0000F0F0F0FFFFFFFFFFF01010101010101CA
:1008F000010101FFFFFFFFFFFFFFFFFFFF000000FF
:1009000000000000000000FFFFFFFFFF0F0F0F0FB0
:100910000F080808080808080808080F0F0F0F0F2D
:10092000FFFFFF01010101010101010101010101BD
:1009300001FFFFFFFFFFFF000000000000000000BC
:100940000000000000FFFFFF0F0F0F080808080855
:100950000808080808080808080F0F0F8300280077
:100960006200320000001E00060146004A014600F7
:10097000880146001704780000800B020F00100366
:1009800014000080FCFC33333333FCFC0000FFFF19
:1009900033333333CFCF0000FFFF03030303FCFCEB
:1009A0000000FFFF00000000FFFF0000FFFF00004D
:1009B00000000000003030C0C0FFFFC0C030300079
:1009C00000FFFF3333333303030030300C0CFFFFE1
:1009D0000C0C303000000C0C33333333C3C303032F
:1009E00000000000030300000303000000000303F5
:1009F00000000303030303030000000000000303DF
:100A000003030000000003030303030303030000C8
:100A100000000003030000000000000303000000CA
:100A200000000000000000000303000000000000C0
:100A30000303030303030000FFFFFFFFFFFFFFFFAC
:100A4000FF0101FFFFFFFFFFFFFFFFFFFFFFFFFFB2
:100A5000FFFFFFFFFF0000FFFFFFFFFFFFFFFFFFA4
:100A60000F0F0F0F0F0F0F0F0F08080F0F0F0F0FA4
:100A70000F0F0F0FFFFFFFFFFFFFFF01010101013C
:100A800001FFFFFFFFFFFFFFFFFFFFFFFFFFFF0073
:100A90000000000000FFFFFFFFFFFFFF0F0F0F0F21
:100AA0000F0F0F0808080808080F0F0F0F0F0F0F80
:100AB000FFFFFFFFFF01010101010101010101FF32
:100AC000FFFFFFFFFFFFFFFFFF000000000000002F
:100AD000000000FFFFFFFFFF0F0F0F0F0F080808B8
:100AE000080808080808080F0F0F0F0FFFFFFF0185
:100AF00001010101010101010101010101FFFFFFEC
:100B0000FFFFFF00000000000000000000000000E8
:100B100000FFFFFF0F0F0F08080808080808080863
:100B200008080808080F0F0F170400012705000127
:100B3000200600012705000197040001750500014A
:100B4000E0060001750500012705000120060001EF
:100B5000170400012006000175050001970400013B
:100B600017040001000000010180000000000000E7
:100B70000000000000000000C0C03030303F3F30B7
:100B80003030C0C000000000000000000000000085
:100B900000000000000000C0C03030FFFF0303036E
:100BA000E33373F3E303030303E3F3D393E30303B5
:100BB00003FFFF3030C0C00000000000000003034E
:100BC0000F0F3030FFFF0000181861616160606036
:100BD00060606061616118180000FFFF30300F0F26
:100BE0000303000000E0E06060E0C00080830303D6
:100BF000838303C3E36363636303838303038383A5
:100C000003E3E303030000000080808080001F1FD7
:100C100003071F1D00676F6C6C7F3F000F1F1818C4
:100C20001818000F1F18181F0F000F1F181818187A
:100C3000000F1F1A1A1B0B0000000000000000002C
:100C40000000000000C0C03030303F3F303030C0C6
:100C5000C0000000000000000000000000000000D4
:100C600000000000C0C03030FFFF030303E393D354
:100C7000F3E303030303E3F37333E3030303FFFF2C
:100C80003030C0C00000000000000003030F0F3030
:100C900030FFFF0000181861616160606060606093
:100CA00061616118180000FFFF30300F0F0303006F
:100CB0000000E0E06060E0C0008083030383830302
:100CC000C3E3636363630383830303838303E3E314
:100CD00003030000000080808080001F1F03071FA7
:100CE0001D00676F6C6C7F3F000F1F1818181800ED
:100CF0000F1F18181F0F000F1F18181818000F1FAC
:100D00001A1A1B0B00000000000000000000000089
:100D10000000C0C03030303F3F303030C0C0000035
:100D200000000000000000000000000000000000C3
:100D300000C0C03030FFFF030303E3F3D393E303AA
:100D4000030303E33373F3E3030303FFFF3030C014
:100D5000C00000000000000003030F0F3030FFFF51
:100D600000001818616161606060606060616161CD
:100D700018180000FFFF30300F0F0303000000E0E1
:100D8000E06060E0C00080830303838303C3E36308
:100D90006363630383830303838303E3E303030046
:100DA00000000080808080001F1F03071F1D006758
:100DB0006F6C6C7F3F000F1F18181818000F1F185A
:100DC000181F0F000F1F18181818000F1F1A1A1BD2
:100DD0000B0000000000000000000000000000C048
:100DE000C03030303F3F303030C0C0000000000025
:100DF0000000000000000000000000000000C0C073
:100E00003030FFFF030303E3F37333E30303030310
:100E1000E393D3F3E3030303FFFF3030C0C00000CC
:100E2000000000000003030F0F3030FFFF00001828
:100E300018616161606060606060616161181800E4
:100E400000FFFF30300F0F0303000000E0E06060A0
:100E5000E0C00080830303838303C3E363636363AE
:100E60000383830303838303E3E30303000000009E
:100E700080808080001F1F03071F1D00676F6C6C40
:100E80007F3F000F1F18181818000F1F18181F0F8A
:100E9000000F1F18181818000F1F1A1A1B0B07062F
:100EA00005040100080A0B0C0D09080B00020202E0
:100EB00000000904000001020200000524001001E6
:100EC000052401010104240206052406000107058A
:100ED000810310004009040100020A000000070518
:100EE00002024000000705830240000004030904D9
:100EF00012010002EF02014041233680000101028D
:100F0000030141726475696E6F204C4C430041725D
:100F10006475626F79002D1111241FBECFEFDAE0E6
:100F2000DEBFCDBF12E0A0E0B1E0EEE8FAE302C020
:100F300005900D92AC37B107D9F727E0ACE7B2E0E6
:100F400001C01D92A635B207E1F717E0CCE8D7E063
:100F500004C02197FE010E942B1DCB38D107C9F791
:100F60000E945A110C94451D0C9400008091890236
:100F700008954F925F926F927F928F929F92AF925D
:100F8000BF92CF92DF92EF92FF920F931F93CF9376
:100F9000DF9330E0F901E80FF91F1E161F060CF071
:100FA0007CC0803891050CF078C0602E712CF30164
:100FB000E60FF71F1E161F060CF06FC06034710598
:100FC0000CF06BC0E62FE7705E2EE7E06E0E711C32
:100FD000E3E075946794EA95E1F7F3E0759567951A
:100FE000FA95E1F7062E000C770BDB01B695BA2FC8
:100FF000AA27B795A795A80FB91FAE50BD4FEA0114
:10100000F12CE12C6701C60ED71E48E0C416D104AE
:101010000CF043C0EFEFCE16DE06A4F18C0150E0D9
:1010200040E04D01E0E88E0E911C17FD21C0FA0151
:10103000EC0FFD1FA490B12C052C02C0AA0CBB1C08
:101040000A94E2F7EFEFCE16DE06C1F1FD01E40FE0
:10105000F51F40804A284082552051F0E7E0CE1627
:10106000D10431F0F401E40FF51FA080BA28B0825A
:101070004F5F5F4F0F5F1F4F421753071CF400383D
:10108000110599F64FEFE41AF40AA058BF4FC20FAA
:10109000D31F6E147F0409F0B5CFDF91CF911F915C
:1010A0000F91FF90EF90DF90CF90BF90AF909F9007
:1010B0008F907F906F905F904F9008955110D2CF96
:1010C000D7CF480F592F511D1416150684F58038B7
:1010D00091056CF597FF02C090E080E04138510522
:1010E00014F040E850E0481BFB01E770FF2721E0C7
:1010F00001C0220FEA95EAF777FF02C0695F7F4FD0
:10110000FB0133E0F595E7953A95E1F7F695FE2F6B
:10111000EE27F795E795E80FF91FEE50FD4F415088
:1011200030F08191DF011197822B8C93F8CF0895D5
:10113000E2EFF2E0A0E0B8E000800EBC8111012CEB
:101140001197A0FDFDCF0192B9F70DB40895FC01F0
:101150008091F102882311F13FB7F89482E08093E7
:10116000E9002091F200822F90E01816190614F47D
:1011700081E090E0882339F0289844E64093F0021B
:101180004091F1004083222339F02091F200211197
:1011900003C02BE62093E8003FBF08958FEF9FEF39
:1011A00008952FB7F89483E08093E9009091E800C8
:1011B000892F807295FF04C09091F20080E4891B12
:1011C0002FBF08958091E80281110DC082E08093C5
:1011D000E40284E08093E5021092E7021092E602B6
:1011E00081E08093E80284EE92E00895CF93DF934C
:1011F0001F92CDB7DEB76983DC01ED91FC910280CF
:10120000F381E02D41E050E0BE016F5F7F4F099513
:101210000F90DF91CF91089583E08093E900809152
:10122000F200882319F08AE38093E80008950E9471
:10123000D10890E00895CF93DF931F92CDB7DEB72A
:10124000FC018485958597FD08C02FEF3FEF35871A
:1012500024870F90DF91CF910895CE0101960E94CF
:10126000A708019719F4898190E0F3CF8FEF9FEFE2
:10127000F0CF0F931F93CF93DF931F92CDB7DEB7BD
:101280008C01FC018485958597FF0BC0CE010196EA
:101290000E94A708019771F4898190E0F801958771
:1012A0008487F801848595850F90DF91CF911F91F8
:1012B0000F9108958FEF9FEFF1CFFC018485958505
:1012C00097FD0BC09FB7F89482E08093E90080916E
:1012D000F2009FBF90E0019608959FB7F89482E0D6
:1012E0008093E9008091F2009FBF90E008954091C3
:1012F000DE025091DF022091DC023091DD024217C4
:101300005307B4F49091E8009570E1F39091E800F0
:1013100092FD19C08093F1008091DE029091DF026E
:1013200001968F739927892B19F48EEF8093E8002B
:101330008091DE029091DF0201969093DF0280930C
:10134000DE0281E0089580E00895DF92EF92FF923F
:101350000F931F93CF93DF93D82E8A01EB017B016C
:10136000E40EF51ECE15DF0559F0D7FE12C0FE01C2
:1013700084910E94770921968111F4CF0FEF1FEF1E
:10138000C801DF91CF911F910F91FF90EF90DF90F7
:1013900008958881EECF0F931F93CF93DF931F9211
:1013A000CDB7DEB782E0898342E450E06AEA7EE0AE
:1013B00080E80E94A5090E94E208DC0112960D91C6
:1013C0001C910115110589F0D801ED91FC91028065
:1013D000F381E02DBE016F5F7F4FC801099597FD36
:1013E00004C0F80100851185ECCF89810F90DF9151
:1013F000CF911F910F910895615030F02091F1002D
:10140000FC0120830196F8CF289884E68093F002AF
:1014100008958251E82FF0E0E256F14FE491909167
:101420007B008E2F880F880F80729F7D892B809381
:101430007B00E770E064E0937C0080917A00806438
:1014400080937A0080917A0086FDFCCF80917800AD
:10145000909179000895FC010E94C20A319728F00A
:1014600068517C4F8F4F9F4FF9CFAB01FC010E9419
:10147000C20A641775078E079F07C8F308958F92F5
:101480009F92AF92BF92CF92DF92EF92FF920F9313
:101490001F93CF93DF936C017B018A018091190127
:1014A000882309F45AC08091F102882309F455C0B9
:1014B0008091E30280FF05C08091E000826080930C
:1014C000E000E801B12C8AEFA82E93E0892E2AE3F0
:1014D000922E209711F4BB20C9F10E94D1088111EE
:1014E00008C0AA94AA20C9F181E090E00E942B0ACA
:1014F000F0CF8C171D0611F00CF08C2F9FB7F894CD
:101500008092E9002091E80025FD02C09FBFE1CF55
:10151000282F30E0C21BD30BF701815020F04191FE
:101520004093F100FACFE20EF31EBB2021F090921F
:10153000E800B12CEBCF8091E80085FDE7CF9092D9
:10154000E800BB24B394209709F3F3CF5D9884E6B9
:101550008093E202101611063CF081E090E0F60163
:101560009383828310E000E0C801DF91CF911F9147
:101570000F91FF90EF90DF90CF90BF90AF909F9032
:101580008F900895A8EDB2E02FB7F8947D918D91DA
:101590009C9166B52FBFA89B05C06F3F18F47F5F75
:1015A0008F4F9F4F22E0660F771F881F991F2A9544
:1015B000D1F708952FB7F8946091D4027091D502B5
:1015C0008091D6029091D7022FBF0895AF92BF921B
:1015D000CF92DF92EF92FF920F931F93CF93DF93FF
:1015E0006C017B018B01040F151FEB015E01AE182E
:1015F000BF08C017D10759F06991D601ED91FC9150
:101600000190F081E02DC6010995892B79F7C5017C
:10161000DF91CF911F910F91FF90EF90DF90CF90CE
:10162000BF90AF90089520918202E0918002F091E6
:101630008102CF010296909381028093800222233F
:1016400019F0859194910895808191810895E1E741
:10165000F0E080818D7F80831092910046984798BA
:101660001092C3020895CF92DF92EF92FF92CF9330
:10167000DF930E94130B811520E8920741F4DF915C
:10168000CF91FF90EF90DF90CF900C94270B21E04B
:101690002093C302813020E8920751F480917E02AA
:1016A00090917F0290938102809380020E94130B9D
:1016B00097FD05C020917D02222309F45BC0209193
:1016C0007C02211157C021E020938302EC01DF77D7
:1016D000209709F052C081E08093840246983FE948
:1016E000C32E3FE0D32EE12CF12CCAEFD0E0E091E5
:1016F0005007F09151070995811103C081E0809353
:10170000840280918302882329F0809184028823B7
:1017100009F446C047980E94130B009709F444C08F
:101720009C01DE010E94081DDC01CB0129E0B5957A
:10173000A795979587952A95D1F7109290002AE062
:1017400020939100D0929900C092980080938502D6
:1017500090938602A0938702B093880280917100D3
:10176000826080937100DF91CF91FF90EF90DF90C6
:10177000CF90089510928302A9CF9E0150E040E0DF
:1017800060E472E48FE090E00E94B41C69017A0189
:1017900081E0C81AD108E108F10810928402A7CFAD
:1017A0004699B8CF479AB7CF8FEF9FEFDC01C5CFEF
:1017B0009C01E1E7F0E090819D7F908381E0809340
:1017C0008202309381022093800230937F02209323
:1017D0007E020C94330B90E00C942B0A8FB1809511
:1017E000807F669B88601C9B8460089590E1282F11
:1017F00081E061FD84E060FD880F62FD8295687F75
:10180000969FD0011124A20FAE50BD4F0C90082A14
:1018100040FF08260C9208958F929F92AF92BF923C
:10182000CF92DF92EF92FF920F931F93CF93DF93AC
:101830006D3089F0C090CA02D090CB026A30D1F4EA
:101840001092C9021092C80288E0C80ED11CD09232
:10185000CB02C092CA0281E090E0DF91CF911F914C
:101860000F91FF90EF90DF90CF90BF90AF909F903F
:101870008F9008950091C8021091C902E5E06E9F13
:10188000E0011124C757DE4F5801F12CF5E0E12C9F
:10189000FF1629F0CE010196FE01E490EC01912C97
:1018A000812CF0E8AF16B10458F4B601680D791D2B
:1018B0006034710528F44E2D4170C5010E94F60B6D
:1018C000E6948FEF881A980AE8E08E16910449F79B
:1018D000F394FFEFAF1ABF0A86E0F812D7CF0A5F82
:1018E0001F4F1093C9020093C802B5CF9091CC024C
:1018F000982329F49091CD02982381E009F480E0A7
:10190000089580E00C949808DF92EF92FF920F9375
:101910001F93CF93DF937C01D22E8B01040F111DF7
:10192000EB0177FF02C0D0E0C0E0C801013411052F
:1019300014F080E490E0C817D9075CF480E8E8165A
:10194000F10428F44D2DBE01C7010E94F60B21962B
:10195000ECCFDF91CF911F910F91FF90EF90DF902F
:101960000895EF92FF920F931F93CF93DF937C0123
:101970008B01C42FD22F6034710510F40E946108CE
:10198000B8016D0F711D615071096034710520F44B
:101990004C2FC7010E94610821E04D2FB801C701FB
:1019A0000E94840CC7018C0F911D21E04D2FB801BE
:1019B0000197DF91CF911F910F91FF90EF900C94C1
:1019C000840C089590E080E00895E8EAF2E0118246
:1019D000108213821282E9EBF2E0108211821092DF
:1019E000BE021092BD028FEF9FEF90930201809391
:1019F000010110929F0210929E0290930601809323
:101A000005019093040180930301109290021092BB
:101A100091021092920210929302109294021092EC
:101A2000950210929602109297021092B3021092B1
:101A3000B4021092B5021092B6021092BC0210923B
:101A4000BB02089590930201809301010E94DA0A7B
:101A5000609390027093910280939202909393020C
:101A60008FE691E00E94D80B88E090E09093BC0252
:101A70008093BB0208950F93242F30ED340F3A303A
:101A800098F4022E000C330B20533109E5E0E29F5D
:101A9000A001E39F500D112444555F4F05E025E060
:101AA0000E94B9070F9108953FEB340F3A3130F49B
:101AB000022E000C330B27533109E8CF4E3539F095
:101AC000463741F0413271F726E230E0DFCF24E2C1
:101AD00030E0DCCF25E230E0D9CF8934A1F093EBC0
:101AE000980F933070F0813561F0843551F099EAA8
:101AF000980F923030F08E3521F0863711F0813218
:101B000021F485E0089583E0089584E008950F931B
:101B10001F93CF938C01C0E0F80181918F0188233E
:101B200049F0803211F4CD5FF7CF0E946D0DCF5F89
:101B3000C80FF2CFC111C1508C2FCF911F910F91BF
:101B40000895EF92FF920F931F93CF93DF93EC01D1
:101B50007B018A01F80141918F01442391F04032C9
:101B600011F42396F7CFB701CE010E943B0DF80187
:101B7000319780810E946D0D90E00196C80FD91FAA
:101B8000E9CFDF91CF911F910F91FF90EF900895D2
:101B90001F920F920FB60F9211248F939F938091F3
:101BA000E1009091E100937F9093E10083FF0FC0EB
:101BB0001092E90091E09093EB001092EC0092E318
:101BC0009093ED001092F10298E09093F00082FF64
:101BD00022C093E09093E9009091F200992319F0CC
:101BE0009AE39093E8009091E202992341F090915A
:101BF000E20291509093E202911101C05D9A90919E
:101C0000F002992341F09091F00291509093F002EC
:101C1000911101C0289A84FF18C08091E2008E7E45
:101C200081608093E2008091E1008F7E8093E100EB
:101C30008091E3028E7E80618093E3029F918F9179
:101C40000F900FBE0F901F90189580FFF7CF8091D7
:101C5000E2008E7E80618093E2008091E1008E7EC2
:101C60008093E1008091E3028E7E8160E5CF1F9238
:101C70000F920FB60F921124CF92DF92EF92FF9244
:101C80000F931F932F933F934F935F936F937F9384
:101C90008F939F93AF93BF93EF93FF93CF93DF9374
:101CA000CDB7DEB76C97DEBFCDBF1092E900809153
:101CB000E80083FF25C068E0CE0145960E94FC093C
:101CC00082EF8093E8008D8987FF39C09091E8000A
:101CD00090FFFCCF982F907609F034C19E894F89F0
:101CE000588D2F89F88C911131C0803861F5809121
:101CF000E1028093F1001092F1008EEF8093E800F2
:101D00006C960FB6F894DEBF0FBECDBFDF91CF91BA
:101D1000FF91EF91BF91AF919F918F917F916F91C3
:101D20005F914F913F912F911F910F91FF90EF90F5
:101D3000DF90CF900F900FBE0F901F9018959EEFE1
:101D40009093E800C7CF1092F100D5CF913059F4AD
:101D50008111D3CF4130510581F68091E1028D7F11
:101D60008093E102CACF933049F48111C6CF41304C
:101D7000510519F68091E1028260F2CF953041F46D
:101D80008091E80080FFFCCF20682093E300B5CF6E
:101D9000963009F0A9C00B8D1C8D22E01092E9004D
:101DA0001092DF021092DE02F2122EC01092DD02BB
:101DB0001092DC020E94CB091F8299E09983FA827B
:101DC00091E09E8390EA98879AEF99872091DE02AE
:101DD0003091DF02275F3F4F3C832B838D8310922E
:101DE000E9001092DF021092DE021093DD020093F0
:101DF000DC0249E050E0BE016F5F7F4F80E00E944F
:101E0000A5090E94CB0979CF1093DD020093DC0273
:101E10000E94E208DC0112960D911C91011511053A
:101E200009F451C1D801ED91FC910480F581E02DB8
:101E3000BE016B5E7F4FC8010995009709F03EC156
:101E4000F80100851185EACFF3E0FF120EC08F89FB
:101E5000882309F440C0823061F440E867E08EE0F6
:101E60009FE00E94FA10811148CF81E28093EB003D
:101E700047CF813029F440E86BE082E09FE0F1CF6A
:101E8000833099F70E94E208DC011296ED90FC90F5
:101E90008E010F5F1F4F6801E114F10479F0D70143
:101EA000ED91FC910680F781E02DB801C7010995FD
:101EB000080F111DF701E084F184EECFD8011C92C8
:101EC000F60101900020E9F73197BF016C197D09F7
:101ED00040E0C601C6CF6CEE7EE0FB01449150E0CD
:101EE00080E80E94A50909CF973009F4BECF983049
:101EF00021F481E08093F10000CF993009F0FDCE0C
:101F0000837009F0B2CFE5E5F1E081E031E096E3DE
:101F10002191222371F08093E9003093EB00DF01DF
:101F200011972C912093EC009093ED008F5F8730F8
:101F300079F78EE78093EA001092EA008F89809308
:101F4000F102DBCE8B8D9C8D1092E9001092DF02A6
:101F50001092DE029093DD028093DC02898D811164
:101F600092C08E899D89913A49F4813209F07DCFE2
:101F700047E050E062E171E080E0B3CF913209F0D8
:101F800074CF833269F48F89988DB0E0A0E080939C
:101F90000E0190930F01A0931001B0931101ADCEEB
:101FA000803269F48091E80082FFFCCF67E082E133
:101FB00091E00E94FC098BEF8093E8009ECE823274
:101FC00009F09BCE8F8980931901EEEFFFE7859191
:101FD00094918B3F9C4D51F1E0E0F8E0809112012B
:101FE00090911301A0911401B0911501803B944090
:101FF000A105B105F1F48091190180FD1AC0EE3FF1
:102000008AE0F80789F587E797E7918380838091D5
:1020100060008093E00288E19BE00FB6F894A895F9
:10202000809360000FBE9093600067CEEEEFFAE001
:10203000D5CF808191818737974709F05ECEA895EB
:10204000809160008861809360008091E0028093BD
:102050006000EE3F2AE0F20789F08091FE0A90913D
:10206000FF0A9183808349CE8081918187379807C9
:1020700051F29093FF0A8093FE0AC5CF1092FF0A97
:102080001092FE0A3ACE0E94E208DC0112960D91EF
:102090001C910115110509F4E8CED801ED91FC91D0
:1020A0000190F081E02DBE016B5E7F4FC801099564
:1020B000811123CEF80100851185EBCF1816190682
:1020C0000CF41BCED2CEF1E0FF12BECE60EF7EE06C
:1020D00004CF0F920FB68F939F93EF93FF9380914E
:1020E000D3028D5F8D3708F08D578093D302E4EDD6
:1020F000F2E080818E4F808391819F4F9183828116
:102100008F4F828383818F4F8383E8EDF2E080815C
:102110008F5F808381818F4F818382818F4F828304
:1021200083818F4F83838FB18F6066991C9B882733
:102130008F3681F48091D202981B963068F0E0E0EF
:10214000F8E087E78083818388E180936000F093E3
:102150006000FFCF9093D202FF91EF919F918F91FA
:102160000FBE0F9018951F920F920FB60F92112469
:102170002F933F934F935F936F937F938F939F938F
:10218000AF93BF93EF93FF93809185029091860266
:10219000A0918702B09188020097A105B10539F19D
:1021A00020918402211105C0369A209183022111C9
:1021B000379A0197A109B109B7FD08C0809385023C
:1021C00090938602A0938702B0938802FF91EF91CB
:1021D000BF91AF919F918F917F916F915F914F913F
:1021E0003F912F910F900FBE0F901F9018950E9456
:1021F000330BECCFEF92FF920F931F93CF93DF93AC
:10220000F82E192FE62E042F81E0860F880F0E94EA
:10221000770983E00E947709CF2DD12FEC0EFD2E98
:10222000F11CCE15DF05B9F007FF13C0FE01849144
:102230000E947709182F80E00E9477098123219658
:102240008111EFCFDF91CF911F910F91FF90EF9010
:1022500008958881EDCF81E0F5CFE2EFF6E01382BB
:10226000128288EE93E0A0E0B0E084839583A68399
:10227000B7838FE591E0918380838FEF9FEF958700
:102280008487E2E5F7E01382128281E791E091838F
:10229000808386EB97E0909351078093500780E00E
:1022A00090E890934F0780934E0746983E9A479840
:1022B0003F9A0895CDB7DEB76297DEBFCDBF789461
:1022C00083E084BD83E085BD81E080936E00E1E81A
:1022D000F0E083E08083E0E881E08083E1E983E06F
:1022E0008083E0E981E08083E1EC87E08083E3ECB8
:1022F00081E08083E0EC82E08083E2EC81E0808317
:10230000EAE787E08083806880831092F102109270
:10231000E1021092E3028091D70081608093D700A0
:1023200080EA8093D80089B5806189BD89B58260D3
:1023300089BD09B400FEFDCF81E090E00E942B0A28
:102340008091D8008F7C80618093D8008091E000DC
:10235000807F8093E0008091E1008E7E8093E10099
:102360008DE08093E200559A209A81EC80937C0066
:1023700081EF85B987EE84B984E38BB984EF8AB99C
:10238000769A6E9880EF81BB10BA80E58CBD81E0B3
:102390008DBD85E00E94EB0B5F9A85E00E94EB0B00
:1023A0005C98E9E3F7E085918EBD00000DB407FE6F
:1023B000FDCFE634C1F75C9A81E88093640081E048
:1023C000809365000E94810C0E94EE0B87FF15C070
:1023D0005C9885EA8EBD00000DB407FEFDCF5C9AC7
:1023E0002E982F982D9880916400806280936400CD
:1023F00081E083BF889513BEFCCF0E94EE0B82FF65
:1024000037C02D980E94EE0B84788438A1F42D9A61
:1024100088EC0E94EB0B2F986FEF82E090E00E9417
:10242000A21C84EF91E00E942B0A2F9A0E94EE0BCF
:1024300084788438D9F30E94EE0B84718431A1F43E
:102440002D9A88EC0E94EB0B2E9860E082E090E0E1
:102450000E94A21C84EF91E00E942B0A2E9A0E94F7
:10246000EE0B84718431D9F388EC0E94EB0BC5CF5D
:102470002D9A82E090E00E949A1C882309F453C0B0
:102480003E9A3F9A81E08093890281E090E00E9429
:102490009A1C182F147081FF0CC011112E9821EF77
:1024A000E22EFF24FA940E94EE0B86FF41C02E9A82
:1024B0002F9A82E30E94EB0B0E94EE0B8111F9CF61
:1024C00080E18093000182E10E94090A8C0183E18E
:1024D0000E94090A7C010E94C20A98012E0D3F1D2C
:1024E0008901330F220B330B600F711F821F931F63
:1024F000611571058105910511F00E945C1C80E851
:10250000682E712C22242394312C10918C021123DB
:1025100009F469C010928C0280E090E0892BA9F345
:102520000E940000ECCF109289023E983F98ADCFF8
:10253000112331F024E0E216F10411F42E9A2F98C1
:1025400081E00E94980800E128E549E856E0B701DB
:1025500084E190E00E94B9070E94810C8FE00E9404
:10256000EB0B3FEFE31AF30A49E1E416F10409F03B
:102570009ACF112311F02F9A2D9880E991E00E94B3
:102580002B0A2D9A81E090E00E949A1C80FF91CF47
:102590008AE090E00E949A1C9FEF980F9E3F08F0FF
:1025A00088CF22E330E03093C9022093C80228E3A9
:1025B00030E03093CB022093CA020AE010E0682F8B
:1025C00082E597E00E940C0C0F5F1F4FC8010E942C
:1025D0009A1C0031110599F70E94810C88EE93E056
:1025E0000E942B0A66CF9091D40280918D02592FC0
:1025F000581B852F20910001521748F48F5F8217D6
:1026000008F08ACF81E083BF889513BE85CF81E033
:1026100080938C0290938D02EAE8F2E080819181B0
:102620000196808391838091CD028093CC020E9499
:10263000EE0B8093CD02E2EFF2E011111FEF8FEF6E
:1026400011931193119311938150D0F71092CB02F3
:102650001092CA021092C9021092C8028091D00250
:102660009091D1028230910509F478C148F4009725
:1026700009F49DC0019709F4F4C00E94810C4CCF6D
:102680008430910509F48CC208F4FDC10597A9F7BF
:10269000809101019091020109E711E0892B11F06D
:1026A00002E811E0C8010E94870D9301281B31093F
:1026B000C90137FD0196A80166E070E09595879500
:1026C0000E94A10D44E66EE070E08EE090E00E9472
:1026D000610882EC91E00E94870D8301081B1109BB
:1026E00017FF02C00F5F1F4F15950795E0908E02F0
:1026F000F0908F02E114F10449F44CE0480F29E016
:102700006AE170E0C80106970E94B10C42EC51E00A
:102710006CE170E0C8010E94A10D8CE991E00E947B
:10272000870D8301081B110917FF02C00F5F1F4FA0
:1027300015950795EA94EF2849F44CE0480F29E0F5
:102740006AE270E0C80106970E94B10C4CE951E0C2
:102750006CE270E0C8010E94A10D80E80E94760C36
:10276000882321F010928F0210928E0280E10E9445
:10277000760C882321F030928F0220928E0288E01E
:102780000E94760C882309F478CF80918E02909174
:102790008F02892B09F0DCC00E94270B0E94E50CF8
:1027A00084E090E09093D1028093D00266CF809134
:1027B000C4029091C502A091C602B091C702892BB4
:1027C0008A2B8B2B51F40E94DA0A6093C402709317
:1027D000C5028093C6029093C7020E94DA0A009154
:1027E000C4021091C5022091C6023091C7026B014C
:1027F0007C01C01AD10AE20AF30AC701B60128E730
:1028000030E040E050E00E94E61C237033278DEC5E
:10281000829FA001839F500D11244659544F07E217
:1028200029E26CE070E08BE290E00E94B90788EB4F
:10283000C8168BE0D806E104F10430F488E00E9469
:10284000760C882309F419CF1092C4021092C502A5
:102850001092C6021092C7023092D1022092D0028A
:102860000CCF8091C302811104C088E29BE00E94DA
:10287000D80B21E040E470E060E08DE090E00E9441
:10288000840C21E040E470E060E08EE090E00E9483
:10289000840C80910C0190910D0101968134910579
:1028A0000CF059C090930D0180930C01E0900C0145
:1028B000F0900D0104E010E020E044E1B701C80110
:1028C0000E94840C0F5F1F4F08311105A9F704E126
:1028D00024E148E35AE0B70184E090E00E94B907A0
:1028E0000AE02AE544E859E068E070E080E290E020
:1028F0000E94B9070E94DA0A24EF31E040E050E07C
:102900000E94E61C20FD15C08BE891E00E94870D17
:102910002AE530E0F901E81BF109CF01F7FD019646
:10292000959587954BE851E060E370E080960E94B2
:10293000A10D88E00E94760C882309F49ECE0E94A7
:10294000C20A611571058105910511F00E945C1C98
:1029500082E090E027CF8CEE9FEFA4CF8091C3025E
:10296000811104C088E29BE00E94D80B8CE991E0C1
:102970000E94870D9301281B3109C90137FD01967B
:102980004CE951E064E070E0959587950E94A10DB7
:1029900044E66CE070E08EE090E00E94610886EA18
:1029A00091E00E94870D8301081B110917FF02C0E7
:1029B0000F5F1F4F15950795E090C102F090C2027E
:1029C000E114F10449F44CE0480F29E066E170E0BD
:1029D000C80106970E94B10C46EA51E068E170E038
:1029E000C8010E94A10D8BEA91E00E94870D83012E
:1029F000081B110917FF02C00F5F1F4F15950795A0
:102A0000EA94EF2849F44CE0480F29E066E270E0D0
:102A1000C80106970E94B10C4BEA51E068E270E0F1
:102A2000C8010E94A10D80E80E94760C882321F045
:102A30001092C2021092C10280E10E94760C88239B
:102A400021F03092C2022092C10288E00E94760CEE
:102A5000882381F08091C1029091C202892B81F478
:102A60000E94270B0E94E50C84E090E09093D10235
:102A70008093D00284E00E94760C8111EDCEFDCDD2
:102A800083E090E0F3CF8BEA91E00E94870DA301F1
:102A9000481B5109CA0157FD01964BEA51E064E019
:102AA00070E0959587950E94A10D44E66CE070E07A
:102AB0008EE090E00E94610888E0EEE1F1E0DE0146
:102AC000119601900D928A95E1F7CE0101965C0175
:102AD000F2E1CF2ED12CF12CE12C0091BF0210910C
:102AE000C002E016F10649F429E04CE5B601625057
:102AF000710982E190E00E94B10CF5014191519180
:102B00005F01B60188E190E00E94A10D8091CE02A4
:102B10009091CF02E816F90639F444EB51E0B60182
:102B200082E690E00E94A10DFFEFEF1AFF0A2BE072
:102B3000C20ED11C34E0E316F10479F680E80E945D
:102B4000760C882349F01016110634F4015011094F
:102B50001093C0020093BF0280E10E94760C88238C
:102B600061F08091BF029091C002833091052CF4F6
:102B700001969093C0028093BF0288E00E94760C79
:102B8000882341F08091BF029091C0029093CF02C0
:102B90008093CE0284E00E94760C8111D9CE6DCD57
:102BA0004091CE025091CF025E874D87E090BD02EA
:102BB000F090BE028701000F111FF801E855FD4F8C
:102BC000C080D180E091BB02F091BC0280910501F0
:102BD00090910601E530F10541F08091030190915B
:102BE0000401E630F10509F0C60165E070E00E94DD
:102BF000171D6630710514F065E070E016161706B3
:102C000014F061E070E023E1269FC001279F900D42
:102C100011249C01265131093A8B298BE930F105A9
:102C2000F8F4EB5EF94E0C942B1D1E16FA16AF1736
:102C3000E917551800197119B819F619F701E75471
:102C4000FD4F8081882309F490C0108281E090E0DC
:102C5000EF2811F090E080E09093BE028093BD02D7
:102C6000A090BB02B090BC0245E0A41AB108F12CC0
:102C7000E12CC70165E070E00E94171D60FD05C0F2
:102C8000E4E0F0E0E81BF90BCF012DEE2603200174
:102C9000279F500C11243BE2430E511C49895A894D
:102CA000440E551E92012C5E3F4F2535310508F02C
:102CB0000AC423E1289FF001299FF00D1124FA870F
:102CC000E9874F0130E1830E911C24E144E1B20118
:102CD000C4010E94B10C42E0A416B10408F0A0C4E3
:102CE00040910501509106018091030190910401EA
:102CF000E416F50621F0E816F90609F091C4ED8511
:102D0000FE85319709F48CC42091BB023091BC023E
:102D10002530310509F085C3E416F50609F088C3AE
:102D2000009198021091990292012F5F3F4F3C87CA
:102D30002B87C984DA8431E1C30ED11C49855A85B9
:102D40004D5D5F4F588B4F878F8598898C159D05FA
:102D500009F471C320E042E16B857C85C6010E94C5
:102D6000840C9FEFC91AD90AEFCFEA94EF2879F0C3
:102D700088E00E94760C882309F472CF1092B80282
:102D80001092B7023092BC022092BB0269CF8091B0
:102D9000B3029091B402A091B502B091B602892B12
:102DA0008A2B8B2B51F40E94DA0A6093B302709342
:102DB000B4028093B5029093B6020E94DA0A0091A1
:102DC000B3021091B4022091B5023091B602601B9B
:102DD000710B820B930B683E73408105910508F4DB
:102DE0003FCF1092B3021092B4021092B50210922B
:102DF000B602C4CF8091B7029091B8020A97C4F589
:102E00000E94DA0A0091AF021091B0022091B10243
:102E10003091B202601B710B820B930B643671050B
:102E20008105910508F41CCF0E94DA0A6093AF0275
:102E30007093B0028093B1029093B2020E940D1C75
:102E400026E030E040E050E00E94B41C6F5F7F4F0E
:102E50008F4F9F4F70930B0160930A018091B702CF
:102E60009091B80201969093B8028093B702F8CE81
:102E70000091AD021091AE02063011055CF50E9482
:102E8000DA0AC090AF02D090B002E090B102F090A8
:102E9000B2026C197D098E099F0966397105810599
:102EA000910508F4DDCE0E94DA0A6093AF027093B8
:102EB000B0028093B1029093B2028091090191E037
:102EC0008927809309010F5F1F4F1093AE02009373
:102ED000AD02C6CE81E0809309011092AE0210923D
:102EE000AD028D859E85029759F48091AC028111C7
:102EF00040C0ED85FE85F093BC02E093BB02B0CEEE
:102F00002D853E8523303105A1F580910A019091F0
:102F10000B01069771F50E940D1C29E030E040E09E
:102F200050E00E94B41C70930801609307010E9456
:102F3000DA0A6093B3027093B4028093B50290935F
:102F4000B60284E090E09093BC028093BB0288CEEE
:102F5000D092A502C092A40283E090E0F4CFEA945C
:102F6000EF2819F188E00E94760C8823A1F01092D6
:102F7000AC02D092A702C092A60280910A01909161
:102F80000B018C0D9D1D8332910514F79093A502C2
:102F90008093A402E1CF84E00E94760C882309F498
:102FA0005FCE81E08093AC02E9CE20910A0130919E
:102FB0000B01C9018C0D9D1D8332910594F72430BE
:102FC00031057CF31092AC02D092A702C092A60207
:102FD000DDCF0E94DA0A8090A0029090A102A0901A
:102FE000A202B090A302681979098A099B096C3280
:102FF00071408105910508F433CE0E94DA0A60938E
:10300000A0027093A1028093A2029093A3028091E8
:10301000A4029091A502C816D9066CF4F801E855EF
:10302000FD4F5FEFC51AD50AD182C0828AE799E0C9
:103030000E94D80B15CE82E2C816D10424F0C70135
:103040000E94220D0DCEECE3F1E090E080E02081C3
:103050003181C216D30609F434C342815381C416A8
:10306000D50609F42FC3019634968530910579F77A
:103070000E94DA0A609394027093950280939602FC
:103080009093970287E090E05ECF4130510581F741
:10309000880F991F880F991FFC01E45CFE4F828105
:1030A00093818C159D0521F72FC3F1E0EF16F104F4
:1030B00071F188E00E94760C811106C088E00E94C0
:1030C000760C882309F4CCCD1092B3021092B4028E
:1030D0001092B5021092B60281E090E0E114F10482
:1030E00011F090E080E0E0910701F0910801E930F3
:1030F000F10568F5E258F74E0C942B1D9B18B71894
:10310000C518D018DE18EB18F118F718FB180E9434
:10311000DA0A8090B3029090B402A090B502B09009
:10312000B602681979098A099B09603D77408105D3
:10313000910550F6C3CF30E2C316D10444F4F80130
:10314000E855FD4F43E0C40ED11CD182C082F80186
:10315000E855FD4F8081918182970CF070CF80916E
:10316000BB029091BC02892B09F47ACD81CFF80182
:10317000E855FD4F53E0C516D1041CF483E0C82E7A
:10318000D12C83E0C81AD108E0CF9DE1C916D10443
:10319000F4F6F801E855FD4F26E0C20ED11CD5CF5C
:1031A000F801E855FD4F36E0C316D1041CF4B6E033
:1031B000CB2ED12C46E0C41AD108C7CF880F991F57
:1031C000FC01E855FD4F80819181D801A855BD4F84
:1031D0008D939C93BACF880F991FFC01E855FD4F42
:1031E000B4CFF801E855FD4F11821082B0CF880F9F
:1031F000991FFC01F7CF1092BC021092BB02A7CF1F
:103200000E94DA0AC0909A02D0909B02E0909C0241
:10321000F0909D02DC01CB018C199D09AE09BF091C
:10322000883C9105A105B10528F4109299021092ED
:10323000980216CD883552E09507A105B10588F4AE
:10324000BC01CD01685C71098109910924E630E077
:1032500040E050E00E94E61C3093990220939802CF
:10326000FFCC883EE3E09E07A105B10538F483E07A
:1032700090E09093990280939802F2CC8837F5E021
:103280009F07A105B10588F4BC01CD01685E7340BC
:103290008109910924E630E040E050E00E94E61CFC
:1032A00083E090E0821B930BE4CF80349640A1052D
:1032B000B10508F4BACFF801E855FD4F809103013C
:1032C00090910401918380830E94DA0A60939A02AC
:1032D00070939B0280939C0290939D0286E090E005
:1032E00032CE0E94DA0A00919A0210919B0220913C
:1032F0009C0230919D02DC01CB01801B910BA20B43
:10330000B30B883C9105A105B10508F48ECF883533
:1033100032E09307A105B10508F492CF883E43E05F
:103320009407A105B10508F4A2CF883755E09507A9
:10333000A105B10538F4BC01CD016C54744081097C
:103340009109A8CF80349640A105B10508F46DCF4E
:103350008FEF9FEF909306018093050190930401F6
:1033600080930301F2E2CF16D1040CF481CE67CE34
:103370000E94DA0A0091940210919502209196021F
:1033800030919702601B710B820B930B683E734068
:103390008105910508F464CC1092AC0281E090E0C4
:1033A000E114F10411F090E080E09093BE0280936C
:1033B000BD021092B3021092B4021092B5021092A4
:1033C000B602EF2871F081E090E020919E023091EA
:1033D0009F02232B11F090E080E090939F02809356
:1033E0009E021092BC021092BB023ACC0E94DA0AF2
:1033F00000919002109191022091920230919302DB
:10340000601B710B820B930B603D7740810591052A
:1034100008F426CC85E090E09093D1028093D0020E
:103420001FCC2630310521F4E816F90609F478CCD2
:1034300010E000E079CCECE3E09FA001E19F500DAB
:1034400011244459574F04E124E1B201C4010E9400
:10345000B9078091A8029091A902E816F906B1F483
:103460008091BD029091BE02892B21F4F2E0AF164B
:10347000B10460F007E027E045E658E0B201655F7F
:103480007F4F89859A8542960E94B9078091AA024A
:103490009091AB02E816F906B1F48091BD029091CB
:1034A000BE02019721F422E0A216B10460F0B2013D
:1034B000655F7F4F07E027E04EE558E089859A85F4
:1034C0004B960E94B9073FEFE31AF30A43E2E41672
:1034D000F10409F0CECBC090BD02D090BE0242E410
:1034E00058E0C114D10411F046E258E00EE02EE09D
:1034F00060E170E081E090E00E94B90751E0C516FC
:10350000D10409F0C7C04AE058E00EE02EE062E2C4
:1035100070E081E090E00E94B907E090BB02F0907B
:10352000BC02C7010197039728F082E0A816B104F6
:1035300008F0B3C0809109018823A9F080910A01A5
:1035400090910B01019728E1289FA001299F500D20
:103550001124425A584F0CE02CE06AE170E082E7F7
:1035600090E00E94B90794E0E916F10409F085C8DB
:1035700000910701109108010F3F100709F47DC861
:103580007EE0E72EF12C20E04CE162E170E0C70123
:103590000E94840CFFEFEF1AFF0A22E7E216F10403
:1035A00091F72CE144E662E170E08EE090E00E9449
:1035B000B10C40E66FE170E080E190E00E946108AC
:1035C00086EB91E00E94870D24E630E0A901481BBC
:1035D0005109CA0157FD01969595879546EB51E033
:1035E00066E170E00E960E94A10D000F111FF80118
:1035F000E65DFE4F00811181C8010E94870D24E61F
:1036000030E0F901E81BF109CF01F7FD019695952E
:103610008795A80163E270E00E960E94A10D2DC867
:10362000ECE3F1E080819181E816F90609F489C0A4
:1036300082819381E816F90609F483C0349620E567
:1036400031E02E173F0771F74AE0BE016F5F7F4FF1
:1036500087010F5F1F4FC8010E94651CCE010196B4
:103660000E94870DC984DA8432E2C30ED11CC81AC5
:10367000D1084AE0BE016F5F7F4FC8010E94651C00
:10368000AE014F5F5F4FB2016E5F7F4FC6010E9478
:10369000A10DDFCE4EEE57E038CFE114F10409F072
:1036A00062CFCD2811F00C943D130CE02CE046E4E1
:1036B00057E06AE170E082E790E00E94B9070C945D
:1036C0003D1396014091A6025091A7024C155D054D
:1036D0000CF0CECCED85FE85319709F4C9CC409134
:1036E0009E0250919F024115510509F0CECCC216A1
:1036F000D30609F0BDCC880F991F880F991FFC01D4
:10370000E45CFE4F22813381D0920601C092050114
:1037100030930401209303018CE599E00E94D80BBB
:103720000E94DA0A60939A0270939B0280939C0233
:1037300090939D02109299021092980285E090E079
:1037400002CC4D855E854130510509F47DCF8091D5
:103750009E0290919F021EE5892B09F016E7812FAA
:103760000E946D0D412FB2016E5F7F4F29853A8512
:103770002E5D3F4FF901E81BF109CF010E943B0D7F
:1037800068CE8F929F92AF92BF92CF92DF92EF92CC
:10379000FF92CF93DF93EC01688179818A819B81CD
:1037A000611571058105910521F464E279ED8BE5E0
:1037B00097E02DE133EF41E050E00E94B41C490155
:1037C0005A019B01AC01A7EAB1E40E94D31C6B0132
:1037D0007C01ACEEB4EFA50194010E94E11CC60E81
:1037E000D71EE81EF91EF7FE06C081E0C81AD108F0
:1037F000E10880E8F80AC882D982EA82FB82C70120
:10380000B6019F77DF91CF91FF90EF90DF90CF903F
:10381000BF90AF909F908F9008958F929F92AF929C
:10382000BF92CF92DF92EF92FF9260911A01709156
:103830001B0180911C0190911D016115710581058D
:10384000910521F464E279ED8BE597E02DE133EF0A
:1038500041E050E00E94B41C49015A019B01AC01B7
:10386000A7EAB1E40E94D31C6B017C01ACEEB4EF7B
:10387000A50194010E94E11CC60ED71EE81EF91E88
:10388000F7FE06C081E0C81AD108E10880E8F80A0E
:10389000C0921A01D0921B01E0921C01F0921D010E
:1038A000C701B6019F77FF90EF90DF90CF90BF9058
:1038B000AF909F908F90089560931A0170931B01B1
:1038C00080931C0190931D010895BB274A3031F469
:1038D000992322F4BDE2909581959F4F0C94711C21
:1038E000BB27FB015527AA27880F991FAA1FA417DA
:1038F00010F0A41B83955051B9F7A05DAA3308F0CE
:10390000A95DA193009779F7B111B1931192CB0101
:103910000C948A1CDC01FC01672F71917723E1F77D
:10392000329704C07C916D9370836291AE17BF078C
:10393000C8F30895F999FECF92BD81BDF89A9927F1
:1039400080B50895262FF999FECF92BD81BDF89AD2
:10395000019700B4021639F01FBA20BD0FB6F894D3
:10396000FA9AF99A0FBE0895052E97FB1EF400945B
:103970000E94CB1C57FD07D00E94E61C07FC03D019
:103980004EF40C94CB1C50954095309521953F4FAB
:103990004F4F5F4F089590958095709561957F4F3B
:1039A0008F4F9F4F08950E94081DA59F900DB49FB3
:1039B000900DA49F800D911D11240895B7FF0C94C4
:1039C000D31C0E94D31C821B930B0895A1E21A2ED4
:1039D000AA1BBB1BFD010DC0AA1FBB1FEE1FFF1FB3
:1039E000A217B307E407F50720F0A21BB30BE40B03
:1039F000F50B661F771F881F991F1A9469F760954A
:103A00007095809590959B01AC01BD01CF01089503
:103A1000A29FB001B39FC001A39F700D811D11240F
:103A2000911DB29F700D811D1124911D089597FB6A
:103A3000072E16F4009407D077FD09D00E94311D9F
:103A400007FC05D03EF4909581959F4F08957095A1
:103A500061957F4F0895EE0FFF1F0590F491E02DC3
:103A60000994AA1BBB1B51E107C0AA1FBB1FA617C5
:103A7000B70710F0A61BB70B881F991F5A95A9F717
:0E3A800080959095BC01CD010895F894FFCF7C
:103A8E0010FFFFFFFFFFFFFFFF010100ECFFFFFF35
:103A9E00FFFF00E100000000000001000000CD016A
:103AAE00D801E401F201C2019C0101020F021E02C3
:103ABE002C023B02470255026302700201000B000A
:103ACE0003000D00070020000F00190014001E0057
:103ADE00A601AB0100C1808100000000000000F6CD
:103AEE00083F0A17090C095D091B09390900000076
:103AFE00000C0CE60AE20CE10C50312057494E53F3
:103B0E00210050322057494E5321005052455353F5
:103B1E00204120544F205354415254004D41494EA0
:103B2E00204D454E5500504C41590052554C4520A4
:103B3E005345540058004348414F5320434152448B
:103B4E002100504C415920414741494E003120201F
:103B5E0056414E494C4C41003220204E4F204C498C
:103B6E0046545300332020324E44204348414E43A6
:103B7E0045003420204558545241204348414F536C
:103B8E0000504C5553203320535041434553004D64
:103B9E00494E555320332053504143455300504C0A
:103BAE005553203620535041434553004D494E55F1
:103BBE005320362053504143455300535741502014
:103BCE00504C414345530050554C4C204F50504F94
:103BDE004E454E54004241434B20544F20535441C6
:103BEE005254004F505020544F20535441525400C1
:0C3BFE00524F4C4C20414741494E2100E1
:00000001FF
